:020000040800F2
:100000000000032025060008750600087506000894
:100010007506000875060008750600080000000057
:10002000000000000000000000000000750600084D
:100030007506000800000000750600087506000837
:1000400075060008750600087506000875060008A4
:100050007506000875060008750600087506000894
:100060007506000875060008750600087506000884
:100070007506000875060008750600087506000874
:100080007506000875060008750600087506000864
:100090007506000875060008750600087506000854
:1000A0007506000875060008750600087506000844
:1000B0007506000875060008750600087506000834
:1000C0007506000875060008750600087506000824
:1000D0007506000875060008750600087506000814
:1000E0007506000875060008750600087506000804
:1000F00075060008750600087506000875060008F4
:1001000075060008750600087506000875060008E3
:1001100075060008750600087506000875060008D3
:1001200075060008750600087506000875060008C3
:1001300075060008750600087506000875060008B3
:1001400075060008750600087506000875060008A3
:100150007506000875060008750600087506000893
:100160007506000875060008750600087506000883
:1001700075060008750600087506000800000000F6
:100180007506000875060008750600087506000863
:100190007506000875060008750600087506000853
:0C01A000750600087506000875060008CA
:1001AC0010B5054C237833B9044B13B10448AFF3A5
:1001BC0000800123237010BD04000020000000000B
:1001CC00C006000808B5034B1BB103490348AFF345
:1001DC00008008BD0000000008000020C0060008D8
:1001EC00034AD2F8883043F47003C2F88830704761
:1001FC0000ED00E0224B9B6803F00C03042B11D0A4
:10020C00082B13D0002B37D11E4B1F4A1A601C4BE6
:10021C009B68C3F303131D4AD15C1A4A1368CB4085
:10022C0013607047174B1A4A1A60F0E7144B596861
:10023C005A6802F03F0211F4800F13D0144BB3FB39
:10024C00F2F30F4A5268C2F3881202FB03F30C4A12
:10025C005268C2F3014201325200B3FBF2F3094A75
:10026C001360D4E7084BB3FBF2F3054A5268C2F3B0
:10027C00881202FB03F3EAE7024B034A1A60C6E753
:10028C0000380240000000200024F400D8060008CA
:10029C0040787D0108B50B4A136843F48033136032
:1002AC00084B1B6813F4003FFAD0064B01229A60EE
:1002BC00044B9B6803F00C03042BF9D1FFF79AFF56
:1002CC0008BD00BF00380240214A136B43F05603AF
:1002DC001363204B1968204A0A431A605A6822F4A7
:1002EC00814222F001025A6099681C4A0A439A60C2
:1002FC001B4A136843F0807313601A4B196841F062
:10030C0050011960516821F480515160596821F0F5
:10031C000C015960916841F0007191609A6842F04B
:10032C00A0029A60104A116821F0C0011160D168D6
:10033C0041F04001D1601A6822F4407222F00302AD
:10034C001A60DA6842F4807242F00102DA60704797
:10035C0000380240000402400140001002800020DE
:10036C000008024000100240001802400138052825
:10037C001DD8DFE800F003070B1015190C4B0122F8
:10038C009A6170470A4B80229A617047084B4FF470
:10039C0080429A617047074B4FF480529A617047C4
:1003AC00054B04229A617047034B08229A617047EF
:1003BC0000040240000802400010024001380528E9
:1003CC0021D8DFE800F003080D12171C0E4B4FF478
:1003DC0080329A6170470C4B4FF400029A6170475F
:1003EC00094B4FF080429A617047084B4FF0805296
:1003FC009A617047064B4FF480229A617047044B08
:10040C004FF400229A617047000402400008024039
:10041C000010024002280BD0032811D0012817D15C
:10042C000C4B1B6913F0080F0CBF01200020704708
:10043C00094B1B6913F0010F0CBF01200020704702
:10044C00054B1B6913F0100F0CBF012000207047E7
:10045C0000207047001802400010024010B5012423
:10046C0004E02046FFF7AAFF0134E4B2062CF8D9C9
:10047C0010BD82B00023019302E0019B0133019374
:10048C00019B8342F9D302B07047000008B5074BBB
:10049C001B78DBB2052B00D908BD044A1378013355
:1004AC00DBB213701078FFF761FFF5E72C0000202A
:1004BC00064B1B7803B9704710B5044C2078FFF736
:1004CC007DFF2378013BDBB2237010BD2C00002094
:1004DC0070B5FFF7DFFEFFF7F7FEFFF7BFFF012454
:1004EC0004E02046FFF742FF0134E4B2062CF8D9B1
:1004FC004048FFF7BEFF012404E02046FFF75EFFF3
:10050C000134E4B2062CF8D93A48FFF7B2FF10E0F8
:10051C00FFF7CEFF2FE0FFF7B9FF374B1C70374BBF
:10052C001B780BB9002D35D1344B1D706420FFF7AF
:10053C00A0FF334A136801331360324A12689A1AC7
:10054C00B2F57A7FF2D92F4A13600120FFF762FFD0
:10055C0006460220FFF75EFF04460320FFF75AFF12
:10056C000546294B1B7833B92EB1284B1B78002B31
:10057C00CED1FFF78BFF244B1E701F4B1B78002B2B
:10058C00CBD1002CC9D0214B1B78002BC3D1FFF74A
:10059C008FFFC2E71D4A1378B3FA83F35B0913701C
:1005AC00002616E02046FFF7E1FE0134E4B2062CEB
:1005BC00F8D91748FFF75DFF012404E02046FFF748
:1005CC00FDFE0134E4B2062CF8D91148FFF751FFB7
:1005DC000136012E01DC0124E9E7012404E0204668
:1005EC00FFF7C4FE0134E4B20A4B1B78DBB2A34222
:1005FC00F5D299E7E09304002900002028000020A0
:10060C0024000020200000202A0000202B000020C5
:10061C00A08601002C000020DFF834D00D480E49D4
:10062C000E4A002302E0D458C4500433C4188C4240
:10063C00F9D30B4A0B4C002301E013600432A242A5
:10064C00FBD3FFF7CDFD00F011F8FFF741FF70472A
:10065C00000003200000002004000020F006000829
:10066C000400002030000020FEE7000070B50D4DA6
:10067C000D4C641BA4100026A64209D10B4D0C4C4A
:10068C0000F018F8641BA4100026A64205D170BD1A
:10069C0055F8043B98470136EEE755F8043B98476C
:1006AC000136F2E7E8060008E8060008E80600084C
:1006BC00EC060008F8B500BFF8BC08BC9E467047B5
:0C06CC00F8B500BFF8BC08BC9E467047A3
:1006D80000000000000000000102030406070809EA
:0406E800D101000834
:0406EC00AD01000854
:0406F0000024F400EE
:0400000508000625C4
:00000001FF
